:100000000C9462000C94A6050C947F050C948A0055
:100010000C948A000C948A000C948A000C948A0038
:100020000C948A000C948A000C948A000C948A0028
:100030000C948A000C948A000C948A000C948A0018
:100040000C9496030C948A000C9406040C94E00320
:100050000C948A000C948A000C948A000C948A00F8
:100060000C948A000C948A000000000023002600F3
:10007000290000000008000201000003040700003E
:1000800000000000000000000000250028002B00F8
:1000900000000000240027002A00040404040404D3
:1000A0000404020202020202030303030303010227
:1000B00004081020408001020408102001020408F6
:1000C00010200E0D11241FBECFEFD8E0DEBFCDBF34
:1000D00011E0A0E0B1E0EEEEFAE102C005900D9271
:1000E000A634B107D9F722E0A6E4B1E001C01D9221
:1000F000AD3DB207E1F710E0C2E6D0E004C02197C1
:10010000FE010E94610DC136D107C9F70E94D509D1
:100110000C94750D0C9400000895CF92DF92EF922D
:10012000FF920F931F93CF93DF936C017A018B01A2
:10013000C0E0D0E0CE15DF0589F0D8016D918D01CA
:10014000D601ED91FC910190F081E02DC601099559
:10015000892B11F47E0102C02196ECCFC701DF91FB
:10016000CF911F910F91FF90EF90DF90CF90089566
:10017000FC01918D828D981761F0828DDF01A80FAF
:10018000B11D5D968C91928D9F5F9F73928F90E0D1
:1001900008958FEF9FEF0895FC01918D828D981740
:1001A00031F0828DE80FF11D858D90E008958FEF7D
:1001B0009FEF0895FC01918D228D892F90E0805C46
:1001C0009F4F821B91098F73992708958FE192E0C9
:1001D0000E94DA0021E0892B09F420E0822F0895A3
:1001E000FC01848DDF01A80FB11DA35ABF4F2C91D4
:1001F000848D90E001968F739927848FA689B789A3
:100200002C93A089B1898C9180648C93938D848D7B
:10021000981306C00288F389E02D80818F7D80834A
:100220000895EF92FF920F931F93CF93DF93EC010A
:1002300081E0888F9B8D8C8D981305C0E889F989A2
:10024000808185FD24C0F62E0B8D10E00F5F1F4FBF
:100250000F731127E02E8C8DE8120CC00FB607FC2F
:10026000FACFE889F989808185FFF5CFCE010E9418
:10027000F000F1CF8B8DFE01E80FF11DE35AFF4F27
:10028000F0820B8FEA89FB898081806207C0EE894A
:10029000FF896083E889F98980818064808381E0B7
:1002A00090E0DF91CF911F910F91FF90EF90089513
:1002B000CF93DF93EC01888D8823C9F0EA89FB890D
:1002C000808185FD05C0A889B9898C9186FD0FC004
:1002D0000FB607FCF5CF808185FFF2CFA889B989D9
:1002E0008C9185FFEDCFCE010E94F000E7CFDF912A
:1002F000CF91089580E090E0892B29F00E94E600DC
:1003000081110C94000008950F931F93CF93DF93F6
:100310008C01EC0180914F01909150019E01201BB6
:10032000310B2817390730F469918FE192E00E9470
:100330001101F0CFDF91CF911F910F910895CF93CD
:10034000DF93EC01603208F06FE16F8388858823CA
:1003500011F066956F8361E1CE010E940F06807EE9
:100360009F81482F492B61E1CE01DF91CF910C9401
:10037000CD051F93CF93DF932091BC02621709F440
:100380005DC0162FEC016230E9F168F4662309F4D0
:1003900040C0613009F052C061E00E940F06837EC8
:1003A000482F44603BC06330B9F0643009F046C068
:1003B00061E00E940F06837E482F4C6061E0CE0111
:1003C0000E94CD058885882369F1E881F981068836
:1003D000F789E02D61E013C061E00E940F06837E83
:1003E000482F406161E0CE010E94CD0588858823B9
:1003F000C9F0E881F9810688F789E02D60E0CE0137
:10040000099510C061E00E940F06837E482F486066
:1004100005C061E00E940F06482F437E61E0CE01D7
:100420000E94CD058091BC02811106C067E2CE0119
:100430000E940F0687FFF6CF1093BC02DF91CF9189
:100440001F9108950E94670DCF92DF92EF92FF9265
:100450000F931F93CF93DF9300D000D01F92CDB79F
:10046000DEB7EDB6FEB600914D0110914E018DB78D
:100470009EB7801B910B0FB6F8949EBF0FBE8DBF29
:1004800001966C01A80162E571E00E946C0D0250BA
:100490001109B801C6010E94F604909348018093A7
:1004A0004701F801EE5AFE4F41812081022E000CD7
:1004B000330B322F2227242B8217930701F181E07F
:1004C0008093460125E030E03093500120934F01A6
:1004D0009AEA99839FE09A838B8363E070E0CE0170
:1004E00001960E94F60480934B0190934C019C83EB
:1004F0008D83CE0101960E94840180E001C081E0DD
:100500000FB6F894FEBE0FBEEDBE0F900F900F9089
:100510000F900F90DF91CF911F910F91FF90EF906F
:10052000DF90CF900895CF93DF932091BC022330CA
:10053000C9F420911E02211115C0EC0164E20E9451
:100540000F0690E09195819591098C349F4F54F45A
:10055000E881F9810488F589E02D61E0CE010995F3
:1005600081E001C080E0DF91CF9108958EBD000051
:100570000DB407FEFDCF8EB50895833081F028F4C9
:10058000813099F08230A1F008958730A9F0883049
:10059000B9F08430D1F4809180008F7D03C08091C8
:1005A00080008F7780938000089584B58F7702C094
:1005B00084B58F7D84BD08958091B0008F7703C08E
:1005C0008091B0008F7D8093B00008951F93CF93EA
:1005D000DF93282F30E0F901EE58FF4F8491F901A5
:1005E000E255FF4FD491F901E656FF4FC491CC2359
:1005F000C9F0162F81110E94BD02EC2FF0E0EE0F22
:10060000FF1FEA57FF4FA591B4918FB7F8941111CE
:1006100005C09C91ED2FE095E92302C0EC91ED2BF4
:10062000EC938FBFDF91CF911F9108953FB7F8945E
:100630008091D9019091DA01A091DB01B091DC01A8
:1006400026B5A89B05C02F3F19F00196A11DB11D2D
:100650003FBFBA2FA92F982F8827820F911DA11D68
:10066000B11DBC01CD0142E0660F771F881F991FA5
:100670004A95D1F708952FB7F8946091D5017091FC
:10068000D6018091D7019091D8012FBF08958F9204
:100690009F92AF92BF92CF92DF92EF92FF920F9311
:1006A0001F93CF93DF93EC01162F6A01F22E6DE3B7
:1006B0000E940F06482F44606DE3CE010E94CD05D5
:1006C0000E943B034B015C01CE010E9493028823F0
:1006D000C1F0E881F9810088F189E02DE12C2F2D0E
:1006E000A601612FCE010995DF91CF911F910F9146
:1006F000FF90EF90DF90CF90BF90AF909F908F9042
:1007000008950E943B03DC01CB0188199909AA09CD
:10071000BB09883E9340A105B105D8F6E881F9816F
:100720000480F581E02DCE010995CECF1F920F9266
:100730000FB60F9211242F933F938F939F93AF93F4
:10074000BF938091D5019091D601A091D701B0912E
:10075000D8013091D40123E0230F2D3720F40196E6
:10076000A11DB11D05C026E8230F0296A11DB11DD4
:100770002093D4018093D5019093D601A093D70103
:10078000B093D8018091D9019091DA01A091DB0159
:10079000B091DC010196A11DB11D8093D901909308
:1007A000DA01A093DB01B093DC01BF91AF919F917F
:1007B0008F913F912F910F900FBE0F901F90189522
:1007C0001F920F920FB60F9211242F933F934F93C6
:1007D0005F936F937F938F939F93AF93BF93EF93A9
:1007E000FF938FE192E00E94F000FF91EF91BF91A3
:1007F000AF919F918F917F916F915F914F913F91B9
:100800002F910F900FBE0F901F9018951F920F926F
:100810000FB60F9211242F938F939F93EF93FF9313
:10082000E0912F02F09130028081E0913502F09149
:10083000360282FD12C09081809138028F5F8F73E3
:1008400020913902821751F0E0913802F0E0E15E28
:10085000FD4F958F8093380201C08081FF91EF9109
:100860009F918F912F910F900FBE0F901F90189511
:1008700081E08093DC028091DA029091DB02DC015E
:10088000ED91FC910484F585E02D09951092DC0230
:1008900008950895F8942091BC02233021F420910A
:1008A0001E0221110FC02091BC02233011F4789454
:1008B00007C0DC01ED91FC910288F389E02D0995D8
:1008C00080E00895DC01ED91FC910488F589E02D2C
:1008D00061E0099581E00895CF93DF93EC0161E039
:1008E0008A810E94E60289858CBD8A858DBD8091B2
:1008F000DC02811101C07894DF91CF910895FC0151
:10090000F8948CB581878DB582878CB5837F8CBD3B
:100910008CB58F7D8CBD8CB58C7F8CBD8DB58E7F5D
:100920008DBD60E082810C94E6023F924F925F920F
:100930006F927F928F929F92AF92BF92CF92DF92EF
:10094000EF92FF920F931F93CF93DF93EC01162F3B
:100950005A01922E302E812CCE2CD12CE12CF12C50
:10096000E881F9810190F081E02D01E0292DA501B8
:10097000612FCE0109950E943B032B013C010E948F
:100980003B03DC01CB0184199509A609B7098C1535
:100990009D05AE05BF05A0F4E881F9810480F581CD
:1009A000E02DCE010995882351F39091D70291173C
:1009B00011F01F3F21F79091D602911105C0DFCFB2
:1009C0008394381468F680E0DF91CF911F910F91E6
:1009D000FF90EF90DF90CF90BF90AF909F908F905F
:1009E0007F906F905F904F903F9008950F931F936B
:1009F000CF93DF936115710529F1FC01680F791F11
:100A000080E090E0E617F707F9F0A19128E030E0E8
:100A100040E850E0B0E0EC01CC27D078880F991F77
:100A20008A010A231B23012B09F0D058CD2B21F07A
:100A3000C1E28C27C0E19C2755954795215031098B
:100A400051F7E0CF80E090E0DF91CF911F910F91BF
:100A5000089590E0FC01E255FF4F2491FC01E65619
:100A6000FF4F8491882399F090E0880F991FFC0133
:100A7000E057FF4FA591B491FC01EA57FF4F8591D4
:100A800094918FB7F894EC91E22BEC938FBF08957B
:100A90008F929F92AF92BF92CF92DF92EF92FF928E
:100AA0000E9416034B015C0184E6C82ED12CE12C78
:100AB000F12C0E941603DC01CB0188199909AA09BF
:100AC000BB09883E9340A105B10558F021E0C21A48
:100AD000D108E108F10888EE880E83E0981EA11C79
:100AE000B11CC114D104E104F10419F7FF90EF9097
:100AF000DF90CF90BF90AF909F908F9008951F92FE
:100B00000F920FB60F9211242F933F934F935F9341
:100B10006F937F938F939F93AF93BF93EF93FF93C5
:100B2000E0910201F09103010995FF91EF91BF91CE
:100B3000AF919F918F917F916F915F914F913F9175
:100B40002F910F900FBE0F901F9018951F920F922C
:100B50000FB60F9211242F933F934F935F936F9390
:100B60007F938F939F93AF93BF93EF93FF93E09106
:100B70000001F09101010995FF91EF91BF91AF91B3
:100B80009F918F917F916F915F914F913F912F91A5
:100B90000F900FBE0F901F9018950F931F93CF9338
:100BA000DF9300D0CDB7DEB78C01DC01ED91FC9175
:100BB000008CF18DE02D4A83698309956981862F28
:100BC00080680E94B6024A81842F0E94B602D80132
:100BD000ED91FC91028CF38DE02DC8010F900F90E8
:100BE000DF91CF911F910F9109941F93CF93DF93C2
:100BF000EC01162F611102C045E501C04DE56AE523
:100C0000CE010E94CD05111102C040E701C04CE7A2
:100C10006CE5CE01DF91CF911F910C94CD05EF9241
:100C2000FF921F93CF93DF931F92CDB7DEB77C0166
:100C3000DC01ED91FC91008CF18DE02D698309952B
:100C40006981862F8F770E94B60280E00E94B602EB
:100C5000182FD701ED91FC91028CF38DE02DC70187
:100C60000995812F0F90DF91CF911F91FF90EF9009
:100C70000895EF92FF920F931F93CF93DF93EC01B0
:100C800061E08DEB92E00E94B9012097C1F08DEBFD
:100C900092E00E947F048EEB0E94B6028E017E01DC
:100CA00080E1E80EF11CF80181918F010E94B602EB
:100CB0000E151F05C1F78DEB92E00E946C046DE3E9
:100CC0008DEB92E00E940F068E7F41E0CD2B09F460
:100CD00040E0482B6DE38DEB92E0DF91CF911F91C7
:100CE0000F91FF90EF900C94CD05CF93DF93EC0123
:100CF0006887611102C04AE101C04FE063E1CE01A3
:100D00000E94CD058885882341F061E1CE010E94D3
:100D10000F068F71482F406602C04F81406861E125
:100D2000CE01DF91CF910C94CD05CF92DF92EF925F
:100D3000FF920F931F93CF93DF93CDB7DEB7AE979C
:100D40000FB6F894DEBF0FBECDBF8EE28E010F5FEF
:100D50001F4FF801982F11929A95E9F791E0998326
:100D600024E02A8332E03B8393E09D833E832F83FC
:100D700030E4388725E029879A8796E09B8793E3BC
:100D80009C8727E02D8798E09F8799E0998B99E1D0
:100D90009B8B92E49C8B45E24D8B3E8B36E23F8BE6
:100DA000288F28E2298F20E12A8F29E22B8F2CED32
:100DB0002C8F8D8F88E88E8F8FE28F8F8DE288A3A6
:100DC00080E389A327E32BA320E92CA328E32DA309
:100DD0009EA39CE39FA39FE898A79DE399A792E118
:100DE0009AA79FE69BA78CA78FEF8DA784EE8E878F
:100DF00080EC888B84E68AA361E08091BF020E9428
:100E0000E6028091BF020E942905FFB6F894809106
:100E1000D902811124C0E4EAF0E08491E8EBF0E02B
:100E20009491E82FF0E0EE0FFF1FE057FF4FA591E0
:100E3000B491EC91E92321F461E08AE00E94E6029A
:100E40008AE00E9429058CB580618CBD8CB58064D8
:100E50008CBD8DE00E9429058BE00E9429058091C0
:100E6000D9028F5F8093D902FFBE0E943B036B01C2
:100E70007C014AEA6FE28DEB92E00E94CD056FE2C1
:100E80008DEB92E00E940F068A3A61F00E943B03CC
:100E9000DC01CB018C199D09AE09BF09C297A105E0
:100EA000B10538F30E943B036B017C0145E56FE21D
:100EB0008DEB92E00E94CD056FE28DEB92E00E94F7
:100EC0000F06853561F00E943B03DC01CB018C19D4
:100ED0009D09AE09BF09C297A105B10538F3F12CF0
:100EE000F801EF0DF11DEF0DF11D60816F3F39F03D
:100EF00041818DEB92E00E94CD05F394F1CF80E02B
:100F000090E00E9439066091C5028DEB92E00E944C
:100F1000750661E08DEB92E00E94B9010E943B03EF
:100F20006B017C0167E28DEB92E00E940F0687FD6A
:100F30000CC00E943B03DC01CB018C199D09AE095A
:100F4000BF09C297A105B10568F30E943B03DC010C
:100F5000CB018C199D09AE09BF09C297A105B10546
:100F600050F51092DC028091C1028230C8F4E82F63
:100F7000F0E0EE0FFF1FE050FF4F28E334E0318335
:100F80002083813039F0809169008360809369000B
:100F9000E89A06C0809169008C6080936900E99AA4
:100FA0008DEB92E09093DB028093DA0282E08093F3
:100FB000C20281E001C080E0AE960FB6F894DEBFB9
:100FC0000FBECDBFDF91CF911F910F91FF90EF909A
:100FD000DF90CF900895CF93DF93EC011092D80269
:100FE0001092D70210921D0210921E0210921C0243
:100FF0001092D60210921B0210921A0268E20E940E
:101000000F0682FF0AC06DE3CE010E940F06482F33
:1010100044606DE3CE010E94CD0540E465E2CE015F
:101020000E94CD05E881F9810488F589E02D63E00F
:10103000CE01DF91CF910994EF92FF921F93CF934E
:10104000DF93EC018091BC02833001F568E2CE01B0
:101050000E940F0682FD2EC019C08091D8028D33E8
:1010600030F4E091D802F0E0E352FE4F1082E881C4
:10107000F981028CF38DE02DCE010995E881F9818B
:101080000488F589E02D63E0CE01099564E2CE0184
:101090000E940F0690E0919581959109959587950D
:1010A00090931B0280931A02DF91CF911F91FF90C2
:1010B000EF900895E881F9810488F589E02D61E0D9
:1010C000CE010995E881F981008CF18DE02DCE01EA
:1010D000099580E00E94B60280E00E94B6028093EB
:1010E0001E0280911E028334D0F480911E028093F0
:1010F0001E0280E00E94B60280931D028E81811143
:1011000009C090911D028D81981721F080911D02D8
:101110008F3F39F480911E02833018F017C082E4AB
:10112000E6CF10921E02E881F981028CF38DE02D4A
:10113000CE010995E881F9810288F389E02DCE017D
:10114000DF91CF911F91FF90EF90099480911E0243
:1011500083508093D80280E00E94B6028093D70229
:1011600080E00E94B602982F90789093D602982F34
:10117000907490931C02E881F9810684F785E02D34
:10118000682FCE01099510E08091D802181708F059
:1011900064CFE12EF12C80E00E94B602F701E35209
:1011A000FE4F80831F5FF0CFCF92DF92EF92FF92CE
:1011B0000F931F93CF93DF93EC01F62ED42EC52E01
:1011C000122FE881F9810488F589E02D61E0099505
:1011D00067E2CE010E940F0687FFFACF40E065E28A
:1011E000CE010E94CD051E3308F01DE3E11004C0BE
:1011F000002321F000E403C000E801C000E0E88122
:10120000F981008CF18DE02DCE01099580E80E94D6
:10121000B60283E0810F0E94B6028F2D0E94B602B3
:101220008D810E94B602802F0E94B6020D2DED2CFA
:10123000FC2C8E2D801B811730F4F70181917F01EA
:101240000E94B602F6CFE881F981028CF38DE02D81
:10125000CE010995E881F9810488F589E02D64E0E3
:10126000CE0109950E943B036B017C012B8130E08C
:10127000F901EE58FF4F8491F901E255FF4F0491B7
:10128000F901E656FF4F14911123F1F081110E94EC
:10129000BD02E12FF0E0EE0FFF1FE859FF4FA591CF
:1012A000B491EC91E02381F0E881F9810488F5891B
:1012B000E02D61E0CE01DF91CF911F910F91FF9062
:1012C000EF90DF90CF9009940E943B03DC01CB01AB
:1012D0008C199D09AE09BF09883E9340A105B1054F
:1012E00008F4C4CFE1CF4F925F926F927F92AF929A
:1012F000BF92CF92DF92EF92FF920F931F93CF9303
:10130000DF93EC015B01F42E10921C021091D702C6
:10131000C0901A02D0901B026DE30E940F06482F66
:1013200044606DE3CE010E94CD050E943B032B017A
:101330003C01CE010E949302882311F11093D70241
:10134000E881F9810088F189E02DEE24E39400E042
:101350002F2DA501612FCE010995D0921B02C092BD
:101360001A02DF91CF911F910F91FF90EF90DF90C4
:10137000CF90BF90AF907F906F905F904F90089507
:101380000E943B03DC01CB0184199509A609B7092A
:10139000883E9340A105B10588F6E881F981048073
:1013A000F581E02DCE010995C4CFCF93DF93CDB762
:1013B000DEB7EF970FB6F894DEBF0FBECDBF7894BF
:1013C00084B5826084BD84B5816084BD85B582604A
:1013D00085BD85B5816085BD80916E0081608093FB
:1013E0006E00109281008091810082608093810064
:1013F0008091810081608093810080918000816074
:10140000809380008091B10084608093B1008091CE
:10141000B00081608093B00080917A0084608093F6
:101420007A0080917A00826080937A0080917A00BD
:10143000816080937A0080917A00806880937A003E
:101440001092C100E0912F02F091300282E080837F
:10145000E0912B02F0912C021082E0912D02F0918C
:101460002E0280E1808310923702E0913302F091E6
:10147000340286E08083E0913102F0913202808173
:1014800080618083E0913102F09132028081886036
:101490008083E0913102F091320280818068808304
:1014A000E0913102F091320280818F7D808385E06E
:1014B00090E0A0E0B0E08093230290932402A093F8
:1014C0002502B093260289E00E94290561E089E0A7
:1014D0000E94E6020E94480560E089E00E94E60260
:1014E0000E9448050E94950661E08DEB92E00E9403
:1014F00075066FE18DEB92E00E949F0184E391E01D
:101500000E94390635E0C32ED12C4AEAB42EAA2413
:10151000A3949E01225C3F4F3FAF2EAF56E0852E35
:10152000912C8DEB92E00E944A048093D301882392
:1015300049F0EDEDF1E0A6E9B1E08DE301900D9207
:101540008A95E1F780911C02882329F080911D0281
:101550008F3F09F05BC28FE192E00E94DA00892B95
:1015600009F451C202E511E00E943B036093270297
:10157000709328028093290290932A02E0911F021F
:10158000F09120020680F781E02D8FE192E009952D
:1015900097FD0CC0F80181938F01F1E006391F0718
:1015A00019F7809152018A3A29F51EC00E943B0327
:1015B00040902702509028026090290270902A02E1
:1015C000DC01CB0184199509A609B70940902302D3
:1015D0005090240260902502709026028415950593
:1015E000A605B70558F2DDCF80915301803110F484
:1015F0008093510180915101811167C0D0925001B7
:10160000C0924F01D0924E01C0924D010E9424021F
:10161000882309F4F8C16DB67EB61092510180910D
:101620004F01909150012DB73EB7281B390B0FB6D3
:10163000F8943EBF0FBE2DBF0DB71EB70F5F1F4FF3
:1016400089E00E94290561E089E00E94E6020E948B
:10165000480560E089E00E94E6020E9448050E9479
:10166000950661E08DEB92E00E9475066FE18DEBCF
:1016700092E00E949F0184E391E00E943906F80104
:10168000B082118221E02283E0904F01F09050015E
:10169000270132E0431A5108B201C8010E94F60442
:1016A00080934B0190934C01F801E40DF51D90835C
:1016B000E00EF11EF70131978083C8010E9484017A
:1016C0000FB6F8947EBE0FBE6DBEF090510182E061
:1016D000F8124FC09092500180924F01D0924E016B
:1016E000C0924D010E942402882309F48CC16DB67A
:1016F0007EB61092510180914F0190915001EDB74B
:10170000FEB7E81BF90B0FB6F894FEBF0FBEEDBF96
:101710000DB71EB70F5F1F4FB182F801F1826091C4
:10172000540162838DEB92E00E940F06F8018383DF
:10173000E0904F01F09050012701F2E04F1A51085C
:10174000B201C8010E94F60480934B0190934C01B2
:10175000F801E40DF51D9083E00EF11EF7013197BD
:101760008083C8010E9484010FB6F8947EBE0FBE2C
:101770006DBEF090510121E0F21257C090925001DD
:1017800080924F0190924E0180924D010E9424025E
:10179000882309F438C16DB67EB61092510180914C
:1017A0004F0190915001EDB7FEB7E81BF90B0FB652
:1017B000F894FEBF0FBEEDBF0DB71EB70F5F1F4FF2
:1017C00040915501609154018DEB92E00E94CD054E
:1017D000F801B082F1826091540162838DEB92E056
:1017E0000E940F06F8018383E0904F01F0905001B2
:1017F0002701F2E04F1A5108B201C8010E94F60415
:1018000080934B0190934C01F801E40DF51D9083FA
:10181000E00EF11EF70131978083C8010E94840118
:101820000FB6F8947EBE0FBE6DBE8091510184301C
:1018300009F06FC0D0925001C0924F0121E430E016
:1018400030934E0120934D010E942402882309F415
:10185000DAC04DB65EB61092510180914F01909161
:101860005001EDB7FEB7E81BF90B0FB6F894FEBFB9
:101870000FBEEDBF2DB73EB72F5F3F4F3901A4E537
:10188000B1E0FE0131968D9181938EAD9FADE81749
:10189000F907C9F728E2E22E02E02DE3AE014F5F1F
:1018A0005F4F61E08DEB92E00E949504882319F070
:1018B000A0924A0102C010924A018DEB92E00E9470
:1018C0004A04F301B08284E0818380914A018283DB
:1018D00000914F01109150017801F2E0EF1AF108E8
:1018E000B701C3010E94F60480934B0190934C0111
:1018F000F301EE0DFF1D9083060D171DF8013197C2
:101900008083C3010E9484010FB6F8945EBE0FBEAF
:101910004DBE7090510123E0721275C084E490E0D6
:101920009093500180934F01D0924E01C0924D018F
:101930000E942402882309F466C02DB63EB6109298
:10194000510100914F0110915001EDB7FEB7E01B1E
:10195000F10B0FB6F894FEBF0FBEEDBF2DB73EB72B
:101960002F5F3F4F7901B182F90171828091490166
:1019700096E9492E91E0592EF2019191911181E061
:1019800021E0E33DF207C9F7F7018283D7011396FF
:10199000E6E9F1E081918D9321E0E33DF207D1F793
:1019A00080911A0290911B023701600E711EF301A3
:1019B0003497908380911A0290911B023196808314
:1019C00002501109B801C7010E94F60480934B012F
:1019D00090934C01F701E00FF11F9083F3013197D1
:1019E0008083C7010E94840110924901F201119283
:1019F0002F01F3ED4F16F1E05F06C1F70FB6F89433
:101A00003EBE0FBE2DBE0E947A018BCD40E064E445
:101A100071E08DEB92E00E9473099DCDEFE1F2E061
:101A20001382128288EE93E0A0E0B0E08483958375
:101A3000A683B78388E091E09183808385EC90E072
:101A40009587848784EC90E09787868780EC90E088
:101A5000918B808B81EC90E0938B828B82EC90E079
:101A6000958B848B86EC90E0978B868B118E128EF3
:101A7000138E148EE8ECF2E01286138681E290E178
:101A800091878087158214821782168280E090E801
:101A9000918380838FEF9FEF93838283EDEBF2E05E
:101AA00088E191E0918380838AE0828382E083836E
:101AB000148281E08093BC0216829FE19783808725
:101AC0000895EE0FFF1F0590F491E02D099481E039
:101AD00090E0F8940C94750DFB01DC0102C00190BC
:0E1AE0000D9241505040D8F70895F894FFCF72
:101AEE00490449040000000011018D00DA00B8001D
:101AFE00CC00580100000000470395044A04730906
:101B0E0075069F011C088C00D408EB07B901F5057A
:101B1E007F046C0473616D706C65456E63727970D1
:061B2E00744B6579000014
:00000001FF
