:100000000C9463000C948B000C948B000C948E0267
:100010000C948E020C948E020C948B000C948B002A
:100020000C948B000C948B000C948B000C948B0024
:100030000C948B000C948B000C948B000C948B0014
:100040000C9408030C948B000C9478030C945203CA
:100050000C948B000C948B000C948B000C948B00F4
:100060000C948B000C948B0000000008000201002F
:100070000003040700000000000000000000000072
:10008000250028002B0000000000240027002A0083
:1000900000000000230026002900040404040404D6
:1000A0000404020202020202030303030303010227
:1000B00004081020408001020408102001020408F6
:1000C0001020AA03B70511241FBECFEFD8E0DEBF72
:1000D000CDBF11E0A0E0B1E0E2E0FCE002C005909D
:1000E0000D92A032B107D9F722E0A0E2B1E001C041
:1000F0001D92AA32B207E1F710E0C2E6D0E004C0D8
:100100002197FE010E94E905C136D107C9F70E9477
:100110008C040C94F4050C94000090E0FC01E85968
:10012000FF4F3491FC01E255FF4F2491FC01E6564C
:10013000FF4FE491EE2309F43BC0332339F1333010
:1001400091F038F43130A9F0323001F584B58F7D6B
:1001500012C0373091F03830A1F03430B9F48091CA
:1001600080008F7D03C0809180008F778093800016
:100170000DC084B58F7784BD09C08091B0008F77A2
:1001800003C08091B0008F7D8093B000F0E0EE0F4F
:10019000FF1FE458FF4FA591B4918FB7F894EC91ED
:1001A000611103C020952E2301C02E2B2C938FBFED
:1001B000089520916C0130916D012817390771F471
:1001C00090916B0180916A01981741F0E0916B0169
:1001D000F0E0E65DFE4F808190E008958FEF9FEFA5
:1001E000089508951F93CF93DF93DC015C962D91C2
:1001F0003C915D972115310539F481E090E013962B
:100200009C938E9312973DC05196ED91FC9152971D
:1002100050969C915097892F80951FB75E964C9170
:100220005E9741FB772770F941FD6095F894408116
:10023000772311F0492B01C048234083E90121971E
:10024000F1F748E0508160FF02C0592B01C05823EC
:100250005083E9012197F1F76695415099F777238B
:1002600021F090818923808303C08081982B908323
:100270001FBF5C968D919C915D970197F1F721E0EE
:1002800030E0C901DF91CF911F91089520916C0159
:1002900030916D012817390771F480916A0120911E
:1002A0006B0190E0805C9F4F821B910960E470E0DD
:1002B0000E94C105089580E090E0089520916C01AE
:1002C00030916D0128173907B9F490916B01809135
:1002D0006A01981789F0E0916B01F0E0E65DFE4F4E
:1002E000808120916B0130E02F5F3F4F2F733327C8
:1002F00020936B0190E008958FEF9FEF0895E091B8
:100300006C01F0916D01E817F90769F4A389B489CC
:100310009C918589809589238C9310926D01109210
:100320006C0181E0089580E00895CF92DF92EF9212
:10033000FF920F931F93CF93DF936C017A018B0190
:10034000C0E0D0E0CE15DF0589F0D8016D918D01B8
:10035000D601ED91FC910190F081E02DC601099547
:10036000892B11F47E0102C02196ECCFC701DF91E9
:10037000CF911F910F91FF90EF90DF90CF90089554
:10038000FC01918D828D981761F0828DDF01A80F9D
:10039000B11D5D968C91928D9F5F9F73928F90E0BF
:1003A00008958FEF9FEF0895FC01918D828D98172E
:1003B00031F0828DE80FF11D858D90E008958FEF6B
:1003C0009FEF0895FC01918D228D892F90E0805C34
:1003D0009F4F821B91098F73992708958EE691E0B4
:1003E0000E94E20121E0892B09F420E0822F089588
:1003F000FC01848DDF01A80FB11DA35ABF4F2C91C2
:10040000848D90E001968F739927848FA689B78990
:100410002C93A089B1898C9180648C93938D848D69
:10042000981306C00288F389E02D80818F7D808338
:100430000895EF92FF920F931F93CF93DF93EC01F8
:1004400081E0888F9B8D8C8D981305C0E889F98990
:10045000808185FD24C0F62E0B8D10E00F5F1F4FAD
:100460000F731127E02E8C8DE8120CC00FB607FC1D
:10047000FACFE889F989808185FFF5CFCE010E9406
:10048000F801F1CF8B8DFE01E80FF11DE35AFF4F0C
:10049000F0820B8FEA89FB898081806207C0EE8938
:1004A000FF896083E889F98980818064808381E0A5
:1004B00090E0DF91CF911F910F91FF90EF90089501
:1004C000CF93DF93EC01888D8823C9F0EA89FB89FB
:1004D000808185FD05C0A889B9898C9186FD0FC0F2
:1004E0000FB607FCF5CF808185FFF2CFA889B989C7
:1004F0008C9185FFEDCFCE010E94F801E7CFDF910F
:10050000CF91089580E090E0892B29F00E94EE01C0
:1005100081110C94000008950E94EF051F920F9224
:100520000FB60F9211242F933F934F935F936F93C6
:100530007F938F939F93AF93BF93EF93FF93E0913C
:100540006C01F0916D01309709F451C0968DA6852C
:10055000B785858591FF04C09C91892329F447C004
:100560009C91892309F043C0A389B4899C91858912
:10057000809589238C93868997890197F1F7608DFF
:10058000718DA685B785558538E020E0CB010197B0
:10059000F1F7822F90E095958795282F4C91452370
:1005A00009F02068315091F7868D81FD209580916A
:1005B0006A0190E001968F73992730916B0138178B
:1005C00049F0A0916A01B0E0A65DBE4F2C938093E4
:1005D0006A0103C0868D8160868F828D938D01971D
:1005E000F1F7A389B4899C918589892B8C93FF911C
:1005F000EF91BF91AF919F918F917F916F915F919B
:100600004F913F912F910F900FBE0F901F90189513
:100610001F920F920FB60F9211242F933F938F9337
:100620009F93AF93BF938091260190912701A09152
:100630002801B09129013091250123E0230F2D37A6
:1006400020F40196A11DB11D05C026E8230F0296D6
:10065000A11DB11D209325018093260190932701B0
:10066000A0932801B093290180912101909122014A
:10067000A0912301B09124010196A11DB11D809389
:10068000210190932201A0932301B0932401BF91F3
:10069000AF919F918F913F912F910F900FBE0F902F
:1006A0001F9018951F920F920FB60F9211242F933F
:1006B0003F934F935F936F937F938F939F93AF93EA
:1006C000BF93EF93FF938EE691E00E94F801FF91B4
:1006D000EF91BF91AF919F918F917F916F915F91BA
:1006E0004F913F912F910F900FBE0F901F90189533
:1006F0001F920F920FB60F9211242F938F939F93F7
:10070000EF93FF93E0917E01F0917F018081E09172
:100710008401F091850182FD12C090818091870152
:100720008F5F8F7320918801821751F0E0918701CC
:10073000F0E0E259FE4F958F8093870101C08081E0
:10074000FF91EF919F918F912F910F900FBE0F907E
:100750001F901895CF93DF93109271011092700142
:1007600088EE93E0A0E0B0E0809372019093730173
:10077000A0937401B093750124E031E030936F01D0
:1007800020936E0125EC30E030937B0120937A01B9
:1007900024EC30E030937D0120937C0120EC30E0AC
:1007A00030937F0120937E0121EC30E03093810172
:1007B0002093800122EC30E030938301209382016A
:1007C00026EC30E03093850120938401109287015C
:1007D000109288011092890110928A0110920E02E3
:1007E00010920D0280930F0290931002A0931102B9
:1007F000B093120284E191E090930C0280930B027B
:1008000010922202109221021092240210922302CE
:1008100010922602109225021092280210922702AE
:10082000609129026E7F6D7F6093290266956170E9
:1008300081E0682783E00E948D00E1EBF0E02491E5
:10084000EDE9F0E08491882399F090E0880F991FFA
:10085000FC01EA57FF4FA591B491FC01E458FF4F0A
:10086000859194918FB7F894EC91E22BEC938FBF24
:10087000E1EBF0E0E491E0931B02EDE9F0E0E491BC
:10088000F0E0EE0FFF1FE458FF4F85919491909395
:100890001D0280931C02E0EBF0E02491ECE9F0E013
:1008A00084918823C1F090E0880F991FFC01EA57DA
:1008B000FF4FC591D491FC01E458FF4FA591B4912D
:1008C0009FB7F8948881E22FE0958E2388838C91DE
:1008D000E823EC939FBF8091290281FD04C061E071
:1008E00082E00E948D0082E080931702E0EBF0E04E
:1008F000E491E0931802ECE9F0E0E491F0E0EE0F0F
:10090000FF1FE057FF4F8591949190931A028093B7
:100910001902DF91CF910895789484B5826084BDE7
:1009200084B5816084BD85B5826085BD85B58160F3
:1009300085BD80916E00816080936E001092810071
:10094000809181008260809381008091810081602C
:1009500080938100809180008160809380008091ED
:10096000B10084608093B1008091B0008160809379
:10097000B00080917A00846080937A0080917A0040
:10098000826080937A0080917A00816080937A00FF
:1009900080917A00806880937A001092C100E09183
:1009A0007E01F0917F0182E08083E0917A01F091F5
:1009B0007B011082E0917C01F0917D018FEC8083BE
:1009C00010928601E0918201F091830186E080839C
:1009D000E0918001F0918101808180618083E091CC
:1009E0008001F0918101808188608083E0918001A5
:1009F000F0918101808180688083E0918001F09195
:100A0000810180818F7D80831092260210922502C1
:100A100010922402109223021092220210922102BC
:100A20008EE393E09093280280932702909117021F
:100A3000963108F057C02DE831E030932202209320
:100A400021022CE333E0309324022093230224E696
:100A500032E03093260220932502209168009830DE
:100A600050F031E09E3008F430E081E001C0880FA2
:100A70003A95EAF701C084E0822B809368009830B1
:100A800038F09E3040F0963148F020E030E008C069
:100A90002DE630E005C02BE630E002C02CE630E069
:100AA00030931F0220931E02983030F481E001C081
:100AB000880F9A95EAF70EC0292F30E09E3018F47F
:100AC0002850310902C02E50310981E001C0880F41
:100AD0002A95EAF7809320028091270290912802BC
:100AE0000197F1F78091250290912602892B39F127
:100AF00080916C0190916D0122E08B309207F9F0AA
:100B0000009711F00E947F01809129028E7F8093CF
:100B1000290210926A0110926B018BE092E090938F
:100B20006D0180936C01E0911E02F0911F02908193
:100B300080912002892B808302C00E9482028BE078
:100B400092E00E944601892BC1F38BE092E00E9463
:100B50005E01682F80932001E0916E01F0916F019A
:100B60000190F081E02D8EE691E00995E8CF84E1D7
:100B700091E090930C0280930B028BE092E00C9436
:100B80007F0197FB072E16F4009407D077FD09D05C
:100B90000E94D50507FC05D03EF4909581959F4FA6
:100BA0000895709561957F4F0895AA1BBB1B51E175
:100BB00007C0AA1FBB1FA617B70710F0A61BB70BCD
:100BC000881F991F5A95A9F780959095BC01CD0172
:100BD0000895EE0FFF1F0590F491E02D099481E038
:100BE00090E0F8940C94F40510E0C2E6D0E004C064
:100BF000FE010E94E9052196C336D107C9F7F89492
:020C0000FFCF24
:100C02000000000019029501E201C001D401600256
:100C120000000000F200950146015E01D900F100DA
:00000001FF
