:100000000C9463000C948B000C948B000C94CB0428
:100010000C94CB040C94CB040C948B000C948B00AC
:100020000C948B000C948B000C948B000C948B0024
:100030000C948B000C948B000C948B000C948B0014
:100040000C9445050C948B000C94B5050C948F050D
:100050000C948B000C948B000C948B000C948B00F4
:100060000C948B000C948B000000000024002700EF
:100070002A0000000008000201000003040700003D
:1000800000000000000000000000250028002B00F8
:1000900000000000230026002900040404040404D6
:1000A0000404020202020202030303030303010227
:1000B00004081020408001020408102001020408F6
:1000C0001020E7057B0A11241FBECFEFD8E0DEBF6A
:1000D000CDBF11E0A0E0B1E0ECE9F5E102C0059090
:1000E0000D92A033B107D9F722E0A0E3B1E001C03F
:1000F0001D92AB36B207E1F710E0C2E6D0E004C0D3
:100100002197FE010E94AD0AC136D107C9F70E94AE
:10011000B9060C94C10A0C94000090E0FC01EE5862
:10012000FF4F3491FC01E255FF4F2491FC01E6564C
:10013000FF4FE491EE2309F43BC0332339F1333010
:1001400091F038F43130A9F0323001F584B58F7D6B
:1001500012C0373091F03830A1F03430B9F48091CA
:1001600080008F7D03C0809180008F778093800016
:100170000DC084B58F7784BD09C08091B0008F77A2
:1001800003C08091B0008F7D8093B000F0E0EE0F4F
:10019000FF1FEA57FF4FA591B4918FB7F894EC91E8
:1001A000611103C020952E2301C02E2B2C938FBFED
:1001B0000895CF93DF9390E0FC01E255FF4F249127
:1001C000FC01E656FF4F8491882361F190E0880F8F
:1001D000991FFC01E859FF4FC591D491FC01EA57E2
:1001E000FF4FA591B491611109C09FB7F894888120
:1001F000209582238883EC912E230BC0623061F41A
:100200009FB7F8943881822F809583238883EC915F
:100210002E2B2C939FBF06C08FB7F894E8812E2B0E
:1002200028838FBFDF91CF91089520919E01309157
:100230009F012817390771F490919C0180919D01CD
:10024000981741F0E0919C01F0E0E95AFE4F80815F
:1002500090E008958FEF9FEF089508951F93CF9337
:10026000DF93DC015C962D913C915D972115310562
:1002700039F481E090E013969C938E9312973DC0E1
:100280005196ED91FC91529750969C915097892FE1
:1002900080951FB75E964C915E9741FB772770F96A
:1002A00041FD6095F8944081772311F0492B01C0FE
:1002B00048234083E9012197F1F748E0508160FF2E
:1002C00002C0592B01C058235083E9012197F1F74F
:1002D0006695415099F7772321F090818923808397
:1002E00003C08081982B90831FBF5C968D919C9159
:1002F0005D970197F1F721E030E0C901DF91CF91DF
:100300001F91089520919E0130919F012817390770
:1003100071F480919D0120919C0190E0805C9F4F41
:10032000821B910960E470E00E94850A089580E0D4
:1003300090E0089520919E0130919F012817390780
:10034000B9F490919C0180919D01981789F0E091FA
:100350009C01F0E0E95AFE4F808120919C0130E041
:100360002F5F3F4F2F73332720939C0190E0089518
:100370008FEF9FEF0895E0919E01F0919F01E817A4
:10038000F90769F4A389B4899C91858980958923AB
:100390008C9310929F0110929E0181E0089580E05D
:1003A00008958091570290915802892B31F18091E4
:1003B0009E0190919F0122E08D339207F1F000970A
:1003C00011F00E94BB0180915B028E7F80935B02E3
:1003D00010929D0110929C018DE392E090939F01F9
:1003E00080939E01E0915002F091510290818091A2
:1003F0005202892B808381E0089580E008953FB701
:10040000F8948091530190915401A0915501B091BD
:10041000560126B5A89B05C02F3F19F00196A11DD6
:10042000B11D3FBFBA2FA92F982F8827820F911D8A
:10043000A11DB11DBC01CD0142E0660F771F881FD1
:10044000991F4A95D1F708958F929F92AF92BF92CC
:10045000CF92DF92EF92FF926B017C010E94FF012D
:100460004B015C01C114D104E104F104F1F00E94DC
:10047000FF01DC01CB0188199909AA09BB09883E53
:100480009340A105B10570F321E0C21AD108E1083B
:10049000F10888EE880E83E0981EA11CB11CC114DF
:1004A000D104E104F10419F7DDCFFF90EF90DF9064
:1004B000CF90BF90AF909F908F90089560E0809113
:1004C0005C020E948D0061E080915C020E94D90074
:1004D00061E070E080E090E00E94240260E08091A2
:1004E0005C020E94D9006AE070E080E090E00E9427
:1004F0002402109258021092570210925602109243
:10050000550210925402109253028DE991E090939B
:100510005A028093590290914902963108F057C0CF
:100520002DEB30E030935402209353022BE931E05D
:1005300030935602209355022CE231E0309358025A
:100540002093570220916800983050F031E09E309F
:1005500008F430E081E001C0880F3A95EAF701C065
:1005600084E0822B80936800983038F09E3040F011
:10057000963148F020E030E008C02DE630E005C0BC
:100580002BE630E002C02CE630E03093510220939D
:100590005002983030F481E001C0880F9A95EAF754
:1005A0000EC0292F30E09E3018F42850310902C0C7
:1005B0002E50310981E001C0880F2A95EAF7809317
:1005C00052028091590290915A020197F1F70E94CC
:1005D000D1016AEA8DE392E00C942E01CF92DF9272
:1005E000EF92FF920F931F93CF93DF936C017A01E9
:1005F0008B01C0E0D0E0CE15DF0589F0D8016D9108
:100600008D01D601ED91FC910190F081E02DC601A4
:100610000995892B11F47E0102C02196ECCFC70108
:10062000DF91CF911F910F91FF90EF90DF90CF90CE
:100630000895CF93C82F0E94D10183E8809397013A
:10064000C093980142E050E067E971E08DE392E0E9
:100650000E94EE028DE392E00E94820118161906B4
:10066000CCF78DE392E00E949A01CF910895FC01AE
:10067000918D828D981761F0828DDF01A80FB11DD9
:100680005D968C91928D9F5F9F73928F90E00895FD
:100690008FEF9FEF0895FC01918D828D981731F0B7
:1006A000828DE80FF11D858D90E008958FEF9FEF0B
:1006B0000895FC01918D228D892F90E0805C9F4FE1
:1006C000821B91098F739927089580EA91E00E9417
:1006D000590321E0892B09F420E0822F0895FC01C1
:1006E000848DDF01A80FB11DA35ABF4F2C91848DBB
:1006F00090E001968F739927848FA689B7892C93F0
:10070000A089B1898C9180648C93938D848D98138A
:1007100006C00288F389E02D80818F7D8083089553
:10072000EF92FF920F931F93CF93DF93EC0181E041
:10073000888F9B8D8C8D981305C0E889F9898081FD
:1007400085FD24C0F62E0B8D10E00F5F1F4F0F7339
:100750001127E02E8C8DE8120CC00FB607FCFACFE3
:10076000E889F989808185FFF5CFCE010E946F036A
:10077000F1CF8B8DFE01E80FF11DE35AFF4FF082A0
:100780000B8FEA89FB898081806207C0EE89FF892F
:100790006083E889F98980818064808381E090E0CA
:1007A000DF91CF911F910F91FF90EF900895CF931C
:1007B000DF93EC01888D8823C9F0EA89FB89808169
:1007C00085FD05C0A889B9898C9186FD0FC00FB63B
:1007D00007FCF5CF808185FFF2CFA889B9898C917C
:1007E00085FFEDCFCE010E946F03E7CFDF91CF9160
:1007F000089580E090E0892B29F00E946503811123
:100800000C94000008950F931F93CF93DF938C01F6
:10081000EC0180914101909142019E01201B310B1E
:100820002817390730F4699180EA91E00E9490031B
:10083000F0CFDF91CF911F910F9108950F931F93E8
:10084000CF93DF936115710529F1FC01680F791FC2
:1008500080E090E0E617F707F9F0A19128E030E09A
:1008600040E850E0B0E0EC01CC27D078880F991F29
:100870008A010A231B23012B09F0D058CD2B21F02C
:10088000C1E28C27C0E19C2755954795215031093D
:1008900051F7E0CF80E090E0DF91CF911F910F9171
:1008A0000895CF93DF9300D000D01F92CDB7DEB76D
:1008B00025E030E030934201209341019AEA998388
:1008C0009FE19A838B8363E070E0CE0101960E94E2
:1008D0001E0480933D0190933E019C838D83CE0145
:1008E00001960E9403040F900F900F900F900F90AD
:1008F000DF91CF9108950E94B30ACF92DF92EF92D9
:10090000FF920F931F93CF93DF93CDB7DEB7EDB672
:10091000FEB600913F01109140018DB79EB7801B3C
:10092000910B0FB6F8949EBF0FBE8DBF01966C0160
:10093000A80164E471E00E94B80A02501109B801EC
:10094000C6010E941E049093310180933001F8018A
:10095000EC5BFE4F41812081022E000C330B322FC5
:100960002227242B8217930739F081E080933801E6
:100970000E94510480E001C081E00FB6F894FEBEF1
:100980000FBEEDBEDF91CF911F910F91FF90EF90C1
:10099000DF90CF9008951F920F920FB60F921124FF
:1009A0002F933F934F935F936F937F938F939F9377
:1009B000AF93BF93EF93FF93E0919E01F0919F015E
:1009C000309709F451C0968DA685B785858591FF2E
:1009D00004C09C91892329F447C09C91892309F084
:1009E00043C0A389B4899C918589809589238C9380
:1009F000868997890197F1F7608D718DA685B785F6
:100A0000558538E020E0CB010197F1F7822F90E087
:100A100095958795282F4C91452309F020683150F2
:100A200091F7868D81FD209580919D0190E0019642
:100A30008F73992730919C01381749F0A0919D013F
:100A4000B0E0A95ABE4F2C9380939D0103C0868DC0
:100A50008160868F828D938D0197F1F7A389B48988
:100A60009C918589892B8C93FF91EF91BF91AF91D8
:100A70009F918F917F916F915F914F913F912F91B6
:100A80000F900FBE0F901F9018951F920F920FB6E8
:100A90000F9211242F933F938F939F93AF93BF9304
:100AA00080914F0190915001A0915101B09152015C
:100AB00030914E0123E0230F2D3720F40196A11D24
:100AC000B11D05C026E8230F0296A11DB11D20937C
:100AD0004E0180934F0190935001A0935101B09328
:100AE00052018091530190915401A0915501B09110
:100AF00056010196A11DB11D80935301909354019D
:100B0000A0935501B0935601BF91AF919F918F91E2
:100B10003F912F910F900FBE0F901F9018951F922D
:100B20000F920FB60F9211242F933F934F935F9321
:100B30006F937F938F939F93AF93BF93EF93FF93A5
:100B400080EA91E00E946F03FF91EF91BF91AF9116
:100B50009F918F917F916F915F914F913F912F91D5
:100B60000F900FBE0F901F9018951F920F920FB607
:100B70000F9211242F938F939F93EF93FF93E09104
:100B8000B001F091B1018081E091B601F091B7011F
:100B900082FD12C090818091B9018F5F8F73209187
:100BA000BA01821751F0E091B901F0E0E056FE4F32
:100BB000958F8093B90101C08081FF91EF919F9142
:100BC0008F912F910F900FBE0F901F90189510923C
:100BD000A3011092A20188EE93E0A0E0B0E0809320
:100BE000A4019093A501A093A601B093A70124E0CE
:100BF00031E03093A1012093A00125EC30E0309347
:100C0000AD012093AC0124EC30E03093AF01209390
:100C1000AE0120EC30E03093B1012093B00121EC23
:100C200030E03093B3012093B20122EC30E03093F6
:100C3000B5012093B40126EC30E03093B701209346
:100C4000B6011092B9011092BA011092BB01109234
:100C5000BC01109267021092680221E230E13093E9
:100C60006602209365021092620210926102109255
:100C700064021092630220E030E830935E02209319
:100C80005D022FEF3FEF3093600220935F021092DE
:100C9000400210923F028093410290934202A0933F
:100CA0004302B093440284E191E090933E0280932A
:100CB0003D0210925402109253021092560210926A
:100CC0005502109258021092570210925A02109236
:100CD000590260915B026E7F6D7F60935B02669547
:100CE000617081E068278CE00E948D0061E08CE0FB
:100CF0000E94D900EAEBF0E0E491E0934D02E6EACD
:100D0000F0E0E491F0E0EE0FFF1FEA57FF4F85910E
:100D1000949190934F0280934E0260E08BE00E948A
:100D2000D90080915B0281FD04C061E08BE00E94EC
:100D30008D008BE080934902E9EBF0E0E491E093D1
:100D40004A02E5EAF0E0E491F0E0EE0FFF1FE05721
:100D5000FF4F8591949190934C0280934B028DE0CC
:100D600080935C0284E291E090933E0280933D0286
:100D70000895CF93DF93CDB7DEB7789484B58260C2
:100D800084BD84B5816084BD85B5826085BD85B52F
:100D9000816085BD80916E00816080936E001092AD
:100DA0008100809181008260809381008091810028
:100DB00081608093810080918000816080938000B9
:100DC0008091B10084608093B1008091B000816017
:100DD0008093B00080917A00846080937A00809143
:100DE0007A00826080937A0080917A00816080939B
:100DF0007A0080917A00806880937A001092C10016
:100E0000E091B001F091B10182E08083E091AC010A
:100E1000F091AD011082E091AE01F091AF0180E15F
:100E200080831092B801E091B401F091B50186E0A1
:100E30008083E091B201F091B30180818061808371
:100E4000E091B201F091B301808188608083E091EC
:100E5000B201F091B301808180688083E091B2019A
:100E6000F091B30180818F7D808385E090E0A0E0E8
:100E7000B0E08093A4019093A501A093A601B09344
:100E8000A7010E945E0255E0E52EF12C6AEA362E9B
:100E900078E0C72ED12CE6E92E2EF6E0AF2EB12C4D
:100EA00080EA91E00E945903892B09F41DC304E4F0
:100EB00011E02FB7F89480914F0190915001A091CB
:100EC0005101B09152012FBF8093A8019093A901C5
:100ED000A093AA01B093AB01E091A001F091A10110
:100EE0000680F781E02D80EA91E0099597FD0CC01E
:100EF000F80181938F01F1E00E341F07D1F6809144
:100F000044018A3A71F525C02FB7F89480914F01BA
:100F100090915001A0915101B09152012FBF409189
:100F2000A8015091A9016091AA017091AB01841BA5
:100F3000950BA60BB70B4091A4015091A5016091B0
:100F4000A6017091A70184179507A607B70720F29D
:100F5000D6CF8091450190EF980F903110F4809397
:100F600043017090430120E1721246C0F0924201A9
:100F7000E0924101F0924001E0923F010E947D0425
:100F8000882309F4B1C24DB65EB610924301809039
:100F90004101909042018DB79EB7881999090FB60B
:100FA000F8949EBF0FBE8DBF0DB71EB70F5F1F4FCA
:100FB0000E945E02F8013082718281E082833401F6
:100FC000F2E06F1A7108B301C8010E941E048093F9
:100FD0003D0190933E01F801E60DF71D9083800ED0
:100FE000911EF40131978083C8010E9403040FB65B
:100FF000F8945EBE0FBE4DBE9090430122E1921266
:101000004DC0B0924201A0924101F0924001E092A5
:101010003F010E947D04882309F466C24DB65EB686
:10102000109243018091410190914201EDB7FEB7CA
:10103000E81BF90B0FB6F894FEBF0FBEEDBF0DB75E
:101040001EB70F5F1F4F3182F801918280914601D8
:1010500082830E941903F80183838090410190905C
:1010600042013401F2E06F1A7108B301C8010E9415
:101070001E0480933D0190933E01F801E60DF71D9B
:101080009083800E911EF40131978083C8010E94E5
:1010900003040FB6F8945EBE0FBE4DBE80914301AF
:1010A000813109F07AC0B0924201A0924101B09220
:1010B0004001A0923F010E947D04882309F414C2DC
:1010C0004DB65EB61092430180914101909142016C
:1010D0002DB73EB7281B390B0FB6F8943EBF0FBE95
:1010E0002DBF0DB71EB70F5F1F4F90904701809027
:1010F00046010E94D10184E8809397018092980173
:101100009092990185E580939A018AE280939B01F0
:1011100045E050E067E971E08DE392E00E94EE0265
:101120008DE392E00E94820118161906CCF78DE338
:1011300092E00E949A0164E070E080E090E00E94FA
:101140002402F801308281E181838091460182830B
:101150000E941903F801838380904101909042011D
:101160003401F2E06F1A7108B301C8010E941E0435
:1011700080933D0190933E01F801E60DF71D9083A9
:10118000800E911EF40131978083C8010E940304F0
:101190000FB6F8945EBE0FBE4DBE80914301833101
:1011A00009F0C0C0D0924201C0924101D0924001EA
:1011B000C0923F010E947D04882309F495C18DB639
:1011C0009EB6109243012091470180914601082E5E
:1011D000000C990B982F8827822B90933C018093C9
:1011E0003B012091490100914801002E000C110B98
:1011F000102F0027022B10933A01009339019C0114
:1012000021503F4F2F3F314030F4980121503F4F44
:101210002F3F314038F0F2E0F093380182E00E9435
:1012200051047BC097FF08C0919581959109803842
:1012300091055CF02BE805C0803891050CF457C18E
:1012400029E820939701805803C02AE8209397014A
:101250008093980142E050E067E971E08DE392E00D
:101260000E94EE0217FF08C0119501951109003880
:1012700011055CF08FE805C0003811050CF439C188
:101280008DE880939701005803C08EE88093970102
:101290000093980142E050E067E971E08DE392E04D
:1012A0000E94EE0260904101709042012DB73EB75E
:1012B000261937090FB6F8943EBF0FBE2DBF0DB7E4
:1012C0001EB70F5F1F4FEDB7FEB7318283E1F80104
:1012D000818380913B0190913C0192838383809133
:1012E000390190913A01948385832301F2E04F1AEA
:1012F0005108B201C8010E941E0480933D019093E1
:101300003E01F801E40DF51D9083600E711EF3019E
:1013100031978083C8010E9403040FB6F8949EBEE3
:101320000FBE8DBE80914301843109F07BC0D09205
:101330004201C0924101F0924001E0923F010E94BF
:101340007D04882309F4D0C04DB65EB610924301E7
:101350000E94D10160E98DE392E00E942E018DE3AD
:1013600092E00E94820118161906CCF78DE392E0F4
:101370000E949A01829D400111249092370180922F
:1013800036010E94D10161E98DE392E00E942E01B5
:101390008DE392E00E94820118161906CCF78DE3C6
:1013A00092E00E949A01829DC00111249093350120
:1013B0008093340160904101709042012DB73EB797
:1013C000261937090FB6F8943EBF0FBE2DBF0DB7D3
:1013D0001EB70F5F1F4FEDB7FEB7318224E1F80152
:1013E00021839282838294838583430132E0831A2E
:1013F0009108B401C8010E941E0480933D0190939E
:101400003E01F801E80DF91D9083600E711EF30195
:1014100031978083C8010E9403040FB6F8945EBE22
:101420000FBE4DBE80914301853109F05DC0F09241
:101430004201E0924101F0924001E0923F010E949E
:101440007D04882309F450C04DB65EB61092430166
:101450000E94D10162E88DE392E00E942E018DE3AB
:1014600092E00E94820118161906CCF78DE392E0F3
:101470000E949A019C01332730933301209332015B
:101480000091410110914201EDB7FEB7E01BF10B55
:101490000FB6F894FEBF0FBEEDBF2DB73EB72F5F5E
:1014A0003F4F4901318225E1F401218382833801D4
:1014B00032E0631A7108B301C4010E941E048093D4
:1014C0003D0190933E01F401E60DF71D9083080D58
:1014D000191DF80131978083C4010E9403040FB6DF
:1014E000F8945EBE0FBE4DBE0E94F903D9CC28E829
:1014F000ADCE8CE8CBCE84E191E090933E02809318
:101500003D028DE392E00C94BB0197FB072E16F48D
:10151000009407D077FD09D00E94990A07FC05D0F6
:101520003EF4909581959F4F0895709561957F4FFA
:101530000895AA1BBB1B51E107C0AA1FBB1FA6171A
:10154000B70710F0A61BB70B881F991F5A95A9F76C
:1015500080959095BC01CD010895EE0FFF1F059079
:10156000F491E02D099481E090E0F8940C94C10A84
:10157000FB01DC0102C001900D9241505040D8F7B0
:10158000089510E0C2E6D0E004C0FE010E94AD0A5A
:0C1590002196C336D107C9F7F894FFCFAD
:10159C00000000009003EE02590337034B03D703FE
:1015AC00000000002E01EE0282019A0115012D01AE
:1015BC00000000002E01EE0282019A0115012D019E
:00000001FF
